:100000008A11F62F00308A000408840A820700341F
:1000100041344434433431343A3420342534753453
:100020002C34203441344434433432343A34203490
:0A003000253475340D340A34003411
:100AF800080064008001840A04060319003404060F
:100B08007E2D0130831203139F000E3083160313CA
:100B18009F0008008316031318121815193099003E
:100B280098168312031398170800F000831603130E
:100B3800981C9F2DA02D9A2D7008831203139900DD
:100B48000800F200B12D7208840000088A11992566
:100B58008A110130F1007108F207720884008313CA
:100B68000008031DB82DB92DA72D08008312031303
:100B7800CC007C08CD00C82D4D30F8007D08F90068
:100B88004C088A113D278A11831203134D088400EB
:100B98008A1102208A11003A031DD32DD42DC02DAD
:100BA800FC01FD01080083120313D5004F30D40067
:100BB8005508D600D801D901DF01E0014E08FC0034
:100BC8005430FD0056308A11BA258A118312031356
:100BD80058085507D3005308840083138001080080
:100BE800F4007408F20001300310F20DFF3E031DFB
:100BF800F82D0310720D0138831203139F000B3078
:100C0800F3006230F200F20B072EF30B072E000000
:100C1800831203139F149F18122E132E0F2E1E08D3
:100C2800F200F3017208F0007308F1000800700880
:100C380071040319202E212E502EF501F50A2F2EAE
:100C480001300310F00DF10DFF3E031D252E01307C
:100C5800F4007408F507F11F322E332E242E710884
:100C68007302031D392E70087202031C3C2E3D2EA0
:100C7800432E7008F2027108031CF303F3020130DB
:100C88000310F10CF00CFF3E031D442E0130F50259
:100C9800031D4F2E502E332E7308F1007208F000FA
:100CA8000800F501F6017008710403195C2E5D2E29
:100CB800942EF701F70A6B2E01300310F00DF10D99
:100CC800FF3E031D612E0130F4007408F707F11F81
:100CD8006E2E6F2E602E01300310F50DF60DFF3EBF
:100CE800031D702E71087302031D7C2E700872029A
:100CF800031C7F2E802E872E7008F2027108031CB9
:100D0800F303F302751401300310F10CF00CFF3EED
:100D1800031D882E0130F702031D932E942E6F2E8B
:100D28007608F1007508F00008008A1185258A11F7
:100D38008A118E258A1100308A11F4258A117108CA
:100D480083160313D3007008D20001308A11F425EA
:100D58008A11710883160313D5007008D400013076
:100D680083120313CE00831603135308831203134D
:100D7800D00083160313520883120313CF0083167F
:100D88000313550883120313D20083160313540860
:100D980083120313D100A0308A11D7258A11A030FD
:100DA8008A11A5258A11033083120313E300083042
:100DB800E2007630E100E10BDF2EE20BDF2EE30BE1
:100DC800DF2EE62E9F2E8A11002872080319ED2EB9
:100DD800EE2EF32E7208031DF22EF32EF82E700855
:100DE8008A117C258A113C2F7208093E84008313DE
:100DF8000008F300840A0008F40073087404031957
:100E0800062F072F252F7208093E84000008F300DB
:100E1800840A0008F4007208023E84000008F50005
:100E2800840A0008F6007608803AF7007408803AC9
:100E38007702031D212F730875020318242F252F0D
:100E48003C2F7208023E840083130008F3007208E6
:100E5800840000087307F400740884007008800098
:100E68007208023E840001308007840A0318800A51
:100E7800080083120313C500780884008313000850
:100E880084008A1102208A11253A031D4C2F4D2F08
:100E9800E22F0130FA00780884007A088007C00140
:100EA800C1010310003003180130C400FF30C20034
:100EB800FF30C300780884000008CA004A0884008C
:100EC8008A1102208A11753A031D6B2F6C2FDA2FB5
:100ED800790884000008FA00023080077A08840044
:100EE8000008C600840A0008C700780884004A0879
:100EF800013E8000D12F2030CB000130CB024B08BF
:100F0800203E84000A30F0000030F1004708F3006A
:100F18004608F2008A111B268A117008303E831396
:100F280080000A30F0000030F100831203134708F4
:100F3800F3004608F2008A1155268A1171088312B7
:100F48000313C7007008C600460847040319AD2FED
:100F5800AE2FCA2F4B08031DB22FB32F812FCA2FD4
:100F68004B08203E840083130008FA00FB017A082E
:100F7800F0007B08F1004508F2008A11E9268A1181
:100F88000130FA007A0883120313CB0720304B068E
:100F9800031DCF2FD02FB42FF52F4A0884008A11B4
:100FA80002208A11753A03197F2FDA2F0130FA00CF
:100FB800780884007A0883138007F52F780884005E
:100FC800000884008A1102208A11FA00FB017A08BD
:100FD800F0007B08F1004508F2008A11E9268A1121
:100FE800DA2F080083132030840045308A117D25CC
:080FF8008A1183018A11992E70
:04400E00F43CFFFF80
:00000001FF
