:100000008A11EF2F00308A000408840A8207003426
:100010004134443443343A342034253475340D3477
:040020000A3400346A
:100B2800080064008001840A0406031900340406DE
:100B3800962D0130831203139F0050308316031340
:100B48009F000800F00083160313981CAC2DAD2DF0
:100B5800A72D700883120313990008008316031346
:100B68001812181533309900831203139817831637
:100B7800031398160800F200CB2D720884000008B1
:100B88008A11A6258A110130F1007108F20772084E
:100B9800840083130008031DD22DD32DC12D080016
:100BA80083120313A7007C08A800E22D2830F80060
:100BB8007D08F90027088A1136278A118312031342
:100BC800280884008A1102208A11003A031DED2D9D
:100BD800EE2DDA2DFC01FD01080083120313AE008F
:100BE8002A30AD002E08AF00B101B201B801B90139
:100BF8002908FC002D30FD002F308A11D4258A11D8
:100C08008312031331082E07AC002C0884008313C9
:100C180080010800F4007408F20001300310F20D9E
:100C2800FF3E031D122E0310720D013883120313A9
:100C38009F000B30F3006230F200F20B212EF30B11
:100C4800212E0000831203139F149F182C2E2D2E83
:100C5800292E1E08F200F3017208F0007308F10053
:100C680008008A119D258A118A11B2258A1100303F
:100C78008A110E268A11710883120313D200700894
:100C8800D1000130A9005208AB005108AA003D303C
:100C98008A11F1258A113D308A11BF258A11153034
:100CA80083120313BC004B30BB00BE30BA00BA0B32
:100CB8005B2EBB0B5B2EBC0B5B2E3B2E8A110028D8
:100CC800700871040319692E6A2E992EF501F50A28
:100CD800782E01300310F00DF10DFF3E031D6E2E2E
:100CE8000130F4007408F507F11F7B2E7C2E6D2E61
:100CF80071087302031D822E70087202031C852E70
:100D0800862E8C2E7008F2027108031CF303F3027E
:100D180001300310F10CF00CFF3E031D8D2E013045
:100D2800F502031D982E992E7C2E7308F100720887
:100D3800F0000800F501F601700871040319A52EEA
:100D4800A62EDD2EF701F70AB42E01300310F00DA0
:100D5800F10DFF3E031DAA2E0130F4007408F707B9
:100D6800F11FB72EB82EA92E01300310F50DF60D80
:100D7800FF3E031DB92E71087302031DC52E7008AE
:100D88007202031CC82EC92ED02E7008F2027108F8
:100D9800031CF303F302751401300310F10CF00C7B
:100DA800FF3E031DD12E0130F702031DDC2EDD2E80
:100DB800B82E7608F1007508F000080072080319CB
:100DC800E62EE72EEC2E7208031DEB2EEC2EF12EEC
:100DD80070088A1194258A11352F7208093E8400FB
:100DE80083130008F300840A0008F40073087404ED
:100DF8000319FF2E002F1E2F7208093E84000008D9
:100E0800F300840A0008F4007208023E8400000817
:100E1800F500840A0008F6007608803AF70074089E
:100E2800803A7702031D1A2F7308750203181D2FC5
:100E38001E2F352F7208023E840083130008F3002A
:100E48007208840000087307F400740884007008AE
:100E580080007208023E840001308007840A03186B
:100E6800800A080083120313A00078088400831303
:100E7800000884008A1102208A11253A031D452F93
:100E8800462FDB2F0130FA00780884007A088007A3
:100E9800D301D4010310003003180130D700FF300C
:100EA800D500FF30D600780884000008A500250882
:100EB80084008A1102208A11753A031D642F652F58
:100EC800D32F790884000008FA00023080077A08D6
:100ED80084000008A100840A0008A20078088400A1
:100EE8002508013E8000CA2F2030A6000130A60246
:100EF8002608A03E84000A30F0000030F1002208E5
:100F0800F3002108F2008A1164268A117008303E25
:100F1800831380000A30F0000030F10083120313BD
:100F28002208F3002108F2008A119E268A1171080E
:100F380083120313A2007008A100210822040319D8
:100F4800A62FA72FC32F2608031DAB2FAC2F7A2F50
:100F5800C32F2608A03E840083130008FA00FB0173
:100F68007A08F0007B08F1002008F2008A11E226D6
:100F78008A110130FA007A0883120313A607203079
:100F88002606031DC82FC92FAD2FEE2F2508840074
:100F98008A1102208A11753A0319782FD32F01304C
:100FA800FA00780884007A0883138007EE2F7808FF
:100FB8008400000884008A1102208A11FA00FB01CB
:100FC8007A08F0007B08F1002008F2008A11E22676
:100FD8008A11D32F080083120313D301D401D5013A
:100FE800D601D7018313A0308400C0308A1195251B
:080FF8008A1183018A11352ED4
:04400E00F43CFFFF80
:00000001FF
